{
  "_format": "hh-sol-artifact-1",
  "contractName": "DragonBurnProxy",
  "sourceName": "contracts/DragonBurnProxy.sol",
  "abi": [
    {
      "anonymous": false,
      "inputs": [
        {
          "indexed": true,
          "internalType": "address",
          "name": "caller",
          "type": "address"
        },
        {
          "indexed": true,
          "internalType": "uint256",
          "name": "amount",
          "type": "uint256"
        }
      ],
      "name": "Burned",
      "type": "event"
    },
    {
      "stateMutability": "nonpayable",
      "type": "fallback"
    },
    {
      "inputs": [],
      "name": "burn",
      "outputs": [],
      "stateMutability": "nonpayable",
      "type": "function"
    },
    {
      "inputs": [],
      "name": "totalDragonBurned",
      "outputs": [
        {
          "internalType": "uint256",
          "name": "",
          "type": "uint256"
        }
      ],
      "stateMutability": "view",
      "type": "function"
    },
    {
      "stateMutability": "payable",
      "type": "receive"
    }
  ],
  "bytecode": "0x608060405234801561001057600080fd5b506102fb806100206000396000f3fe60806040526004361061002d5760003560e01c80631830893b1461011057806344df8e70146101385761009f565b3661009f576040517f08c379a00000000000000000000000000000000000000000000000000000000081526004016100969060208082526004908201527f6e6f6f7000000000000000000000000000000000000000000000000000000000604082015260600190565b60405180910390fd5b3480156100ab57600080fd5b506040517f08c379a00000000000000000000000000000000000000000000000000000000081526004016100969060208082526004908201527f6e6f6f7000000000000000000000000000000000000000000000000000000000604082015260600190565b34801561011c57600080fd5b5061012660005481565b60405190815260200160405180910390f35b34801561014457600080fd5b5061014d61014f565b005b6040517f70a082310000000000000000000000000000000000000000000000000000000081523060048201527396a5399d07896f757bd4c6ef56461f58db9518629060009082906370a0823190602401602060405180830381865afa1580156101bc573d6000803e3d6000fd5b505050506040513d601f19601f820116820180604052508101906101e09190610295565b9050806000036101ee575050565b8173ffffffffffffffffffffffffffffffffffffffff166344df8e706040518163ffffffff1660e01b8152600401600060405180830381600087803b15801561023657600080fd5b505af115801561024a573d6000803e3d6000fd5b505050508060008082825461025f91906102ae565b9091555050604051819033907f696de425f79f4a40bc6d2122ca50507f0efbeabbff86a84871b7196ab8ea8df790600090a35050565b6000602082840312156102a757600080fd5b5051919050565b808201808211156102e8577f4e487b7100000000000000000000000000000000000000000000000000000000600052601160045260246000fd5b9291505056fea164736f6c6343000818000a",
  "linkReferences": {},
  "deployedLinkReferences": {}
}